{
  "_format": "hh-sol-artifact-1",
  "contractName": "StakeERC20",
  "sourceName": "contracts/StakeErc20.sol",
  "abi": [
    {
      "inputs": [
        {
          "internalType": "address",
          "name": "_tokenAddress",
          "type": "address"
        }
      ],
      "stateMutability": "nonpayable",
      "type": "constructor"
    },
    {
      "anonymous": false,
      "inputs": [
        {
          "indexed": true,
          "internalType": "address",
          "name": "user",
          "type": "address"
        },
        {
          "indexed": false,
          "internalType": "uint256",
          "name": "amount",
          "type": "uint256"
        }
      ],
      "name": "StakedSuccessfully",
      "type": "event"
    },
    {
      "anonymous": false,
      "inputs": [
        {
          "indexed": true,
          "internalType": "address",
          "name": "user",
          "type": "address"
        },
        {
          "indexed": false,
          "internalType": "uint256",
          "name": "amount",
          "type": "uint256"
        }
      ],
      "name": "Withdrawn",
      "type": "event"
    },
    {
      "inputs": [
        {
          "internalType": "string",
          "name": "_name",
          "type": "string"
        },
        {
          "internalType": "uint256",
          "name": "_duration",
          "type": "uint256"
        },
        {
          "internalType": "uint8",
          "name": "_rate",
          "type": "uint8"
        }
      ],
      "name": "addStakingPlan",
      "outputs": [],
      "stateMutability": "nonpayable",
      "type": "function"
    },
    {
      "inputs": [],
      "name": "getContractBalance",
      "outputs": [
        {
          "internalType": "uint256",
          "name": "",
          "type": "uint256"
        }
      ],
      "stateMutability": "view",
      "type": "function"
    },
    {
      "inputs": [],
      "name": "owner",
      "outputs": [
        {
          "internalType": "address",
          "name": "",
          "type": "address"
        }
      ],
      "stateMutability": "view",
      "type": "function"
    },
    {
      "inputs": [
        {
          "internalType": "uint256",
          "name": "_amount",
          "type": "uint256"
        },
        {
          "internalType": "uint256",
          "name": "_plan",
          "type": "uint256"
        }
      ],
      "name": "stake",
      "outputs": [],
      "stateMutability": "nonpayable",
      "type": "function"
    },
    {
      "inputs": [
        {
          "internalType": "uint256",
          "name": "",
          "type": "uint256"
        }
      ],
      "name": "stakePlans",
      "outputs": [
        {
          "internalType": "string",
          "name": "name",
          "type": "string"
        },
        {
          "internalType": "uint256",
          "name": "duration",
          "type": "uint256"
        },
        {
          "internalType": "uint8",
          "name": "rate",
          "type": "uint8"
        },
        {
          "internalType": "uint256",
          "name": "totalRewards",
          "type": "uint256"
        },
        {
          "internalType": "uint256",
          "name": "totalStaked",
          "type": "uint256"
        }
      ],
      "stateMutability": "view",
      "type": "function"
    },
    {
      "inputs": [
        {
          "internalType": "address",
          "name": "",
          "type": "address"
        }
      ],
      "name": "stakes",
      "outputs": [
        {
          "components": [
            {
              "internalType": "string",
              "name": "name",
              "type": "string"
            },
            {
              "internalType": "uint256",
              "name": "duration",
              "type": "uint256"
            },
            {
              "internalType": "uint8",
              "name": "rate",
              "type": "uint8"
            },
            {
              "internalType": "uint256",
              "name": "totalRewards",
              "type": "uint256"
            },
            {
              "internalType": "uint256",
              "name": "totalStaked",
              "type": "uint256"
            }
          ],
          "internalType": "struct StakeERC20.StakingPlan",
          "name": "plan",
          "type": "tuple"
        },
        {
          "internalType": "uint256",
          "name": "amount",
          "type": "uint256"
        },
        {
          "internalType": "uint256",
          "name": "startTime",
          "type": "uint256"
        },
        {
          "internalType": "uint256",
          "name": "unlockTime",
          "type": "uint256"
        },
        {
          "internalType": "uint256",
          "name": "rewards",
          "type": "uint256"
        }
      ],
      "stateMutability": "view",
      "type": "function"
    },
    {
      "inputs": [],
      "name": "tokenAddress",
      "outputs": [
        {
          "internalType": "address",
          "name": "",
          "type": "address"
        }
      ],
      "stateMutability": "view",
      "type": "function"
    },
    {
      "inputs": [],
      "name": "totalStaked",
      "outputs": [
        {
          "internalType": "uint256",
          "name": "",
          "type": "uint256"
        }
      ],
      "stateMutability": "view",
      "type": "function"
    },
    {
      "inputs": [],
      "name": "unStake",
      "outputs": [],
      "stateMutability": "payable",
      "type": "function"
    }
  ],
  "bytecode": "0x60806040523480156200001157600080fd5b506040516200220338038062002203833981810160405281019062000037919062000129565b336000806101000a81548173ffffffffffffffffffffffffffffffffffffffff021916908373ffffffffffffffffffffffffffffffffffffffff16021790555080600160006101000a81548173ffffffffffffffffffffffffffffffffffffffff021916908373ffffffffffffffffffffffffffffffffffffffff160217905550506200015b565b600080fd5b600073ffffffffffffffffffffffffffffffffffffffff82169050919050565b6000620000f182620000c4565b9050919050565b6200010381620000e4565b81146200010f57600080fd5b50565b6000815190506200012381620000f8565b92915050565b600060208284031215620001425762000141620000bf565b5b6000620001528482850162000112565b91505092915050565b612098806200016b6000396000f3fe6080604052600436106100865760003560e01c80637b0472f0116100595780637b0472f014610142578063817b1cd21461016b5780638da5cb5b146101965780639d76ea58146101c1578063a15c9dba146101ec57610086565b806316934fc41461008b5780636b17995a146100cc5780636f9fb98a1461010d57806373cf575a14610138575b600080fd5b34801561009757600080fd5b506100b260048036038101906100ad919061124b565b610215565b6040516100c39594939291906113c2565b60405180910390f35b3480156100d857600080fd5b506100f360048036038101906100ee9190611448565b610322565b6040516101049594939291906114ce565b60405180910390f35b34801561011957600080fd5b506101226103fd565b60405161012f9190611528565b60405180910390f35b61014061052e565b005b34801561014e57600080fd5b5061016960048036038101906101649190611543565b6109f9565b005b34801561017757600080fd5b50610180610f3d565b60405161018d9190611528565b60405180910390f35b3480156101a257600080fd5b506101ab610f43565b6040516101b89190611592565b60405180910390f35b3480156101cd57600080fd5b506101d6610f67565b6040516101e39190611592565b60405180910390f35b3480156101f857600080fd5b50610213600480360381019061020e919061170e565b610f8d565b005b6004602052806000526040600020600091509050806000016040518060a0016040529081600082018054610248906117ac565b80601f0160208091040260200160405190810160405280929190818152602001828054610274906117ac565b80156102c15780601f10610296576101008083540402835291602001916102c1565b820191906000526020600020905b8154815290600101906020018083116102a457829003601f168201915b50505050508152602001600182015481526020016002820160009054906101000a900460ff1660ff1660ff16815260200160038201548152602001600482015481525050908060050154908060060154908060070154908060080154905085565b6003818154811061033257600080fd5b9060005260206000209060050201600091509050806000018054610355906117ac565b80601f0160208091040260200160405190810160405280929190818152602001828054610381906117ac565b80156103ce5780601f106103a3576101008083540402835291602001916103ce565b820191906000526020600020905b8154815290600101906020018083116103b157829003601f168201915b5050505050908060010154908060020160009054906101000a900460ff16908060030154908060040154905085565b60003373ffffffffffffffffffffffffffffffffffffffff1660008054906101000a900473ffffffffffffffffffffffffffffffffffffffff1673ffffffffffffffffffffffffffffffffffffffff161461048d576040517f08c379a000000000000000000000000000000000000000000000000000000000815260040161048490611829565b60405180910390fd5b600160009054906101000a900473ffffffffffffffffffffffffffffffffffffffff1673ffffffffffffffffffffffffffffffffffffffff166370a08231306040518263ffffffff1660e01b81526004016104e89190611592565b602060405180830381865afa158015610505573d6000803e3d6000fd5b505050506040513d601f19601f82011682018060405250810190610529919061185e565b905090565b6105366110d4565b6000600460003373ffffffffffffffffffffffffffffffffffffffff1673ffffffffffffffffffffffffffffffffffffffff1681526020019081526020016000206040518060a0016040529081600082016040518060a00160405290816000820180546105a2906117ac565b80601f01602080910402602001604051908101604052809291908181526020018280546105ce906117ac565b801561061b5780601f106105f05761010080835404028352916020019161061b565b820191906000526020600020905b8154815290600101906020018083116105fe57829003601f168201915b50505050508152602001600182015481526020016002820160009054906101000a900460ff1660ff1660ff168152602001600382015481526020016004820154815250508152602001600582015481526020016006820154815260200160078201548152602001600882015481525050905060008160200151116106d4576040517f08c379a00000000000000000000000000000000000000000000000000000000081526004016106cb906118d7565b60405180910390fd5b806060015142101561071b576040517f08c379a000000000000000000000000000000000000000000000000000000000815260040161071290611943565b60405180910390fd5b6000816020015190506000826080015190506000818361073b9190611992565b90506000600160009054906101000a900473ffffffffffffffffffffffffffffffffffffffff1673ffffffffffffffffffffffffffffffffffffffff166370a08231306040518263ffffffff1660e01b815260040161079a9190611592565b602060405180830381865afa1580156107b7573d6000803e3d6000fd5b505050506040513d601f19601f820116820180604052508101906107db919061185e565b905081811015610820576040517f08c379a000000000000000000000000000000000000000000000000000000000815260040161081790611a12565b60405180910390fd5b600160009054906101000a900473ffffffffffffffffffffffffffffffffffffffff1673ffffffffffffffffffffffffffffffffffffffff1663a9059cbb33846040518363ffffffff1660e01b815260040161087d929190611a32565b6020604051808303816000875af115801561089c573d6000803e3d6000fd5b505050506040513d601f19601f820116820180604052508101906108c09190611a93565b6108ff576040517f08c379a00000000000000000000000000000000000000000000000000000000081526004016108f690611b0c565b60405180910390fd5b600460003373ffffffffffffffffffffffffffffffffffffffff1673ffffffffffffffffffffffffffffffffffffffff168152602001908152602001600020600080820160008082016000610954919061117c565b60018201600090556002820160006101000a81549060ff0219169055600382016000905560048201600090555050600582016000905560068201600090556007820160009055600882016000905550503373ffffffffffffffffffffffffffffffffffffffff167f7084f5476618d8e60b11ef0d7d3f06914655adb8793e28ff7f018d4c76d505d5836040516109ea9190611528565b60405180910390a25050505050565b600073ffffffffffffffffffffffffffffffffffffffff163373ffffffffffffffffffffffffffffffffffffffff1603610a68576040517f08c379a0000000000000000000000000000000000000000000000000000000008152600401610a5f90611b78565b60405180910390fd5b60008211610aab576040517f08c379a0000000000000000000000000000000000000000000000000000000008152600401610aa290611be4565b60405180910390fd5b6003805490508110610af2576040517f08c379a0000000000000000000000000000000000000000000000000000000008152600401610ae990611c50565b60405180910390fd5b6000600160009054906101000a900473ffffffffffffffffffffffffffffffffffffffff1673ffffffffffffffffffffffffffffffffffffffff166370a08231336040518263ffffffff1660e01b8152600401610b4f9190611592565b602060405180830381865afa158015610b6c573d6000803e3d6000fd5b505050506040513d601f19601f82011682018060405250810190610b90919061185e565b905082811015610bd5576040517f08c379a0000000000000000000000000000000000000000000000000000000008152600401610bcc90611cbc565b60405180910390fd5b600160009054906101000a900473ffffffffffffffffffffffffffffffffffffffff1673ffffffffffffffffffffffffffffffffffffffff166323b872dd3330866040518463ffffffff1660e01b8152600401610c3493929190611cdc565b6020604051808303816000875af1158015610c53573d6000803e3d6000fd5b505050506040513d601f19601f82011682018060405250810190610c779190611a93565b610cb6576040517f08c379a0000000000000000000000000000000000000000000000000000000008152600401610cad90611b0c565b60405180910390fd5b600060038381548110610ccc57610ccb611d13565b5b906000526020600020906005020190506040518060a00160405280826040518060a0016040529081600082018054610d03906117ac565b80601f0160208091040260200160405190810160405280929190818152602001828054610d2f906117ac565b8015610d7c5780601f10610d5157610100808354040283529160200191610d7c565b820191906000526020600020905b815481529060010190602001808311610d5f57829003601f168201915b50505050508152602001600182015481526020016002820160009054906101000a900460ff1660ff1660ff168152602001600382015481526020016004820154815250508152602001858152602001428152602001826001015442610de19190611992565b81526020016000815250600460003373ffffffffffffffffffffffffffffffffffffffff1673ffffffffffffffffffffffffffffffffffffffff1681526020019081526020016000206000820151816000016000820151816000019081610e489190611eee565b506020820151816001015560408201518160020160006101000a81548160ff021916908360ff160217905550606082015181600301556080820151816004015550506020820151816005015560408201518160060155606082015181600701556080820151816008015590505083816004016000828254610ec99190611992565b925050819055508360026000828254610ee29190611992565b925050819055503373ffffffffffffffffffffffffffffffffffffffff167f37de6f511db615f3ba9ccfe8db60eda1df82626a43a48ffea0509cf34f600e8985604051610f2f9190611528565b60405180910390a250505050565b60025481565b60008054906101000a900473ffffffffffffffffffffffffffffffffffffffff1681565b600160009054906101000a900473ffffffffffffffffffffffffffffffffffffffff1681565b3373ffffffffffffffffffffffffffffffffffffffff1660008054906101000a900473ffffffffffffffffffffffffffffffffffffffff1673ffffffffffffffffffffffffffffffffffffffff161461101b576040517f08c379a000000000000000000000000000000000000000000000000000000000815260040161101290611829565b60405180910390fd5b60006040518060a001604052808581526020018481526020018360ff16815260200160008152602001600081525090506003819080600181540180825580915050600190039060005260206000209060050201600090919091909150600082015181600001908161108c9190611eee565b506020820151816001015560408201518160020160006101000a81548160ff021916908360ff1602179055506060820151816003015560808201518160040155505050505050565b6000600460003373ffffffffffffffffffffffffffffffffffffffff1673ffffffffffffffffffffffffffffffffffffffff168152602001908152602001600020905060008160050154905060008260000160010154905060008360000160020160009054906101000a900460ff16905063bbf81e00828260ff168561115a9190611fc0565b6111649190611fc0565b61116e9190612031565b846008018190555050505050565b508054611188906117ac565b6000825580601f1061119a57506111b9565b601f0160209004906000526020600020908101906111b891906111bc565b5b50565b5b808211156111d55760008160009055506001016111bd565b5090565b6000604051905090565b600080fd5b600080fd5b600073ffffffffffffffffffffffffffffffffffffffff82169050919050565b6000611218826111ed565b9050919050565b6112288161120d565b811461123357600080fd5b50565b6000813590506112458161121f565b92915050565b600060208284031215611261576112606111e3565b5b600061126f84828501611236565b91505092915050565b600081519050919050565b600082825260208201905092915050565b60005b838110156112b2578082015181840152602081019050611297565b60008484015250505050565b6000601f19601f8301169050919050565b60006112da82611278565b6112e48185611283565b93506112f4818560208601611294565b6112fd816112be565b840191505092915050565b6000819050919050565b61131b81611308565b82525050565b600060ff82169050919050565b61133781611321565b82525050565b600060a083016000830151848203600086015261135a82826112cf565b915050602083015161136f6020860182611312565b506040830151611382604086018261132e565b5060608301516113956060860182611312565b5060808301516113a86080860182611312565b508091505092915050565b6113bc81611308565b82525050565b600060a08201905081810360008301526113dc818861133d565b90506113eb60208301876113b3565b6113f860408301866113b3565b61140560608301856113b3565b61141260808301846113b3565b9695505050505050565b61142581611308565b811461143057600080fd5b50565b6000813590506114428161141c565b92915050565b60006020828403121561145e5761145d6111e3565b5b600061146c84828501611433565b91505092915050565b600082825260208201905092915050565b600061149182611278565b61149b8185611475565b93506114ab818560208601611294565b6114b4816112be565b840191505092915050565b6114c881611321565b82525050565b600060a08201905081810360008301526114e88188611486565b90506114f760208301876113b3565b61150460408301866114bf565b61151160608301856113b3565b61151e60808301846113b3565b9695505050505050565b600060208201905061153d60008301846113b3565b92915050565b6000806040838503121561155a576115596111e3565b5b600061156885828601611433565b925050602061157985828601611433565b9150509250929050565b61158c8161120d565b82525050565b60006020820190506115a76000830184611583565b92915050565b600080fd5b600080fd5b7f4e487b7100000000000000000000000000000000000000000000000000000000600052604160045260246000fd5b6115ef826112be565b810181811067ffffffffffffffff8211171561160e5761160d6115b7565b5b80604052505050565b60006116216111d9565b905061162d82826115e6565b919050565b600067ffffffffffffffff82111561164d5761164c6115b7565b5b611656826112be565b9050602081019050919050565b82818337600083830152505050565b600061168561168084611632565b611617565b9050828152602081018484840111156116a1576116a06115b2565b5b6116ac848285611663565b509392505050565b600082601f8301126116c9576116c86115ad565b5b81356116d9848260208601611672565b91505092915050565b6116eb81611321565b81146116f657600080fd5b50565b600081359050611708816116e2565b92915050565b600080600060608486031215611727576117266111e3565b5b600084013567ffffffffffffffff811115611745576117446111e8565b5b611751868287016116b4565b935050602061176286828701611433565b9250506040611773868287016116f9565b9150509250925092565b7f4e487b7100000000000000000000000000000000000000000000000000000000600052602260045260246000fd5b600060028204905060018216806117c457607f821691505b6020821081036117d7576117d661177d565b5b50919050565b7f4e6f74206f776e65720000000000000000000000000000000000000000000000600082015250565b6000611813600983611475565b915061181e826117dd565b602082019050919050565b6000602082019050818103600083015261184281611806565b9050919050565b6000815190506118588161141c565b92915050565b600060208284031215611874576118736111e3565b5b600061188284828501611849565b91505092915050565b7f4e6f207374616b6520666f756e64000000000000000000000000000000000000600082015250565b60006118c1600e83611475565b91506118cc8261188b565b602082019050919050565b600060208201905081810360008301526118f0816118b4565b9050919050565b7f5374616b696e6720706572696f64206e6f7420656e6465640000000000000000600082015250565b600061192d601883611475565b9150611938826118f7565b602082019050919050565b6000602082019050818103600083015261195c81611920565b9050919050565b7f4e487b7100000000000000000000000000000000000000000000000000000000600052601160045260246000fd5b600061199d82611308565b91506119a883611308565b92508282019050808211156119c0576119bf611963565b5b92915050565b7f496e73756666696369656e7420636f6e74726163742062616c616e6365000000600082015250565b60006119fc601d83611475565b9150611a07826119c6565b602082019050919050565b60006020820190508181036000830152611a2b816119ef565b9050919050565b6000604082019050611a476000830185611583565b611a5460208301846113b3565b9392505050565b60008115159050919050565b611a7081611a5b565b8114611a7b57600080fd5b50565b600081519050611a8d81611a67565b92915050565b600060208284031215611aa957611aa86111e3565b5b6000611ab784828501611a7e565b91505092915050565b7f5472616e73666572206661696c65640000000000000000000000000000000000600082015250565b6000611af6600f83611475565b9150611b0182611ac0565b602082019050919050565b60006020820190508181036000830152611b2581611ae9565b9050919050565b7f5a65726f20616464726573732064657465637465640000000000000000000000600082015250565b6000611b62601583611475565b9150611b6d82611b2c565b602082019050919050565b60006020820190508181036000830152611b9181611b55565b9050919050565b7f43616e2774207374616b65207a65726f20616d6f756e74000000000000000000600082015250565b6000611bce601783611475565b9150611bd982611b98565b602082019050919050565b60006020820190508181036000830152611bfd81611bc1565b9050919050565b7f496e76616c696420706c616e20696e6465780000000000000000000000000000600082015250565b6000611c3a601283611475565b9150611c4582611c04565b602082019050919050565b60006020820190508181036000830152611c6981611c2d565b9050919050565b7f496e73756666696369656e742062616c616e6365000000000000000000000000600082015250565b6000611ca6601483611475565b9150611cb182611c70565b602082019050919050565b60006020820190508181036000830152611cd581611c99565b9050919050565b6000606082019050611cf16000830186611583565b611cfe6020830185611583565b611d0b60408301846113b3565b949350505050565b7f4e487b7100000000000000000000000000000000000000000000000000000000600052603260045260246000fd5b60008190508160005260206000209050919050565b60006020601f8301049050919050565b600082821b905092915050565b600060088302611da47fffffffffffffffffffffffffffffffffffffffffffffffffffffffffffffffff82611d67565b611dae8683611d67565b95508019841693508086168417925050509392505050565b6000819050919050565b6000611deb611de6611de184611308565b611dc6565b611308565b9050919050565b6000819050919050565b611e0583611dd0565b611e19611e1182611df2565b848454611d74565b825550505050565b600090565b611e2e611e21565b611e39818484611dfc565b505050565b5b81811015611e5d57611e52600082611e26565b600181019050611e3f565b5050565b601f821115611ea257611e7381611d42565b611e7c84611d57565b81016020851015611e8b578190505b611e9f611e9785611d57565b830182611e3e565b50505b505050565b600082821c905092915050565b6000611ec560001984600802611ea7565b1980831691505092915050565b6000611ede8383611eb4565b9150826002028217905092915050565b611ef782611278565b67ffffffffffffffff811115611f1057611f0f6115b7565b5b611f1a82546117ac565b611f25828285611e61565b600060209050601f831160018114611f585760008415611f46578287015190505b611f508582611ed2565b865550611fb8565b601f198416611f6686611d42565b60005b82811015611f8e57848901518255600182019150602085019450602081019050611f69565b86831015611fab5784890151611fa7601f891682611eb4565b8355505b6001600288020188555050505b505050505050565b6000611fcb82611308565b9150611fd683611308565b9250828202611fe481611308565b91508282048414831517611ffb57611ffa611963565b5b5092915050565b7f4e487b7100000000000000000000000000000000000000000000000000000000600052601260045260246000fd5b600061203c82611308565b915061204783611308565b92508261205757612056612002565b5b82820490509291505056fea2646970667358221220a0ca482771d7b72b5c98420c80ddd1e64a226b3eab0a7fa531f543f35bd0145864736f6c63430008180033",
  "linkReferences": {},
  "deployedLinkReferences": {}
}