{
  "_format": "hh-sol-artifact-1",
  "contractName": "StakeETH",
  "sourceName": "contracts/StakeEth.sol",
  "abi": [
    {
      "inputs": [],
      "stateMutability": "nonpayable",
      "type": "constructor"
    },
    {
      "anonymous": false,
      "inputs": [
        {
          "indexed": false,
          "internalType": "uint256",
          "name": "amount",
          "type": "uint256"
        }
      ],
      "name": "OwnerDeposit",
      "type": "event"
    },
    {
      "anonymous": false,
      "inputs": [
        {
          "indexed": true,
          "internalType": "address",
          "name": "user",
          "type": "address"
        },
        {
          "indexed": false,
          "internalType": "uint256",
          "name": "amount",
          "type": "uint256"
        }
      ],
      "name": "Staked",
      "type": "event"
    },
    {
      "anonymous": false,
      "inputs": [
        {
          "indexed": true,
          "internalType": "address",
          "name": "user",
          "type": "address"
        },
        {
          "indexed": false,
          "internalType": "uint256",
          "name": "amount",
          "type": "uint256"
        }
      ],
      "name": "Withdrawn",
      "type": "event"
    },
    {
      "inputs": [
        {
          "internalType": "string",
          "name": "_name",
          "type": "string"
        },
        {
          "internalType": "uint256",
          "name": "_duration",
          "type": "uint256"
        },
        {
          "internalType": "uint8",
          "name": "_rate",
          "type": "uint8"
        }
      ],
      "name": "addStakingPlan",
      "outputs": [],
      "stateMutability": "nonpayable",
      "type": "function"
    },
    {
      "inputs": [
        {
          "internalType": "address",
          "name": "",
          "type": "address"
        }
      ],
      "name": "balances",
      "outputs": [
        {
          "internalType": "uint256",
          "name": "",
          "type": "uint256"
        }
      ],
      "stateMutability": "view",
      "type": "function"
    },
    {
      "inputs": [],
      "name": "depositRewards",
      "outputs": [],
      "stateMutability": "payable",
      "type": "function"
    },
    {
      "inputs": [],
      "name": "getContractBalance",
      "outputs": [
        {
          "internalType": "uint256",
          "name": "",
          "type": "uint256"
        }
      ],
      "stateMutability": "view",
      "type": "function"
    },
    {
      "inputs": [
        {
          "internalType": "uint256",
          "name": "_plan",
          "type": "uint256"
        }
      ],
      "name": "stake",
      "outputs": [],
      "stateMutability": "payable",
      "type": "function"
    },
    {
      "inputs": [
        {
          "internalType": "uint256",
          "name": "",
          "type": "uint256"
        }
      ],
      "name": "stakePlans",
      "outputs": [
        {
          "internalType": "string",
          "name": "name",
          "type": "string"
        },
        {
          "internalType": "uint256",
          "name": "duration",
          "type": "uint256"
        },
        {
          "internalType": "uint8",
          "name": "rate",
          "type": "uint8"
        },
        {
          "internalType": "uint256",
          "name": "totalRewards",
          "type": "uint256"
        },
        {
          "internalType": "uint256",
          "name": "totalStaked",
          "type": "uint256"
        }
      ],
      "stateMutability": "view",
      "type": "function"
    },
    {
      "inputs": [
        {
          "internalType": "address",
          "name": "",
          "type": "address"
        }
      ],
      "name": "stakes",
      "outputs": [
        {
          "components": [
            {
              "internalType": "string",
              "name": "name",
              "type": "string"
            },
            {
              "internalType": "uint256",
              "name": "duration",
              "type": "uint256"
            },
            {
              "internalType": "uint8",
              "name": "rate",
              "type": "uint8"
            },
            {
              "internalType": "uint256",
              "name": "totalRewards",
              "type": "uint256"
            },
            {
              "internalType": "uint256",
              "name": "totalStaked",
              "type": "uint256"
            }
          ],
          "internalType": "struct StakeETH.StakingPlan",
          "name": "plan",
          "type": "tuple"
        },
        {
          "internalType": "uint256",
          "name": "amount",
          "type": "uint256"
        },
        {
          "internalType": "uint256",
          "name": "startTime",
          "type": "uint256"
        },
        {
          "internalType": "uint256",
          "name": "unlockTime",
          "type": "uint256"
        },
        {
          "internalType": "uint256",
          "name": "rewards",
          "type": "uint256"
        }
      ],
      "stateMutability": "view",
      "type": "function"
    },
    {
      "inputs": [],
      "name": "totalStaked",
      "outputs": [
        {
          "internalType": "uint256",
          "name": "",
          "type": "uint256"
        }
      ],
      "stateMutability": "view",
      "type": "function"
    },
    {
      "inputs": [],
      "name": "unStake",
      "outputs": [],
      "stateMutability": "nonpayable",
      "type": "function"
    },
    {
      "stateMutability": "payable",
      "type": "receive"
    }
  ],
  "bytecode": "0x608060405234801561001057600080fd5b50336000806101000a81548173ffffffffffffffffffffffffffffffffffffffff021916908373ffffffffffffffffffffffffffffffffffffffff160217905550611ca5806100606000396000f3fe60806040526004361061008a5760003560e01c80636f9fb98a116100595780636f9fb98a1461015f57806373cf575a1461018a578063817b1cd2146101a1578063a15c9dba146101cc578063a694fc3a146101f557610091565b8063152111f71461009657806316934fc4146100a057806327e235e3146100e15780636b17995a1461011e57610091565b3661009157005b600080fd5b61009e610211565b005b3480156100ac57600080fd5b506100c760048036038101906100c29190610f5d565b61031b565b6040516100d89594939291906110d4565b60405180910390f35b3480156100ed57600080fd5b5061010860048036038101906101039190610f5d565b610428565b604051610115919061112e565b60405180910390f35b34801561012a57600080fd5b5061014560048036038101906101409190611175565b610440565b6040516101569594939291906111fb565b60405180910390f35b34801561016b57600080fd5b5061017461051b565b604051610181919061112e565b60405180910390f35b34801561019657600080fd5b5061019f610523565b005b3480156101ad57600080fd5b506101b661091b565b6040516101c3919061112e565b60405180910390f35b3480156101d857600080fd5b506101f360048036038101906101ee91906113b6565b610921565b005b61020f600480360381019061020a9190611175565b610a68565b005b3373ffffffffffffffffffffffffffffffffffffffff1660008054906101000a900473ffffffffffffffffffffffffffffffffffffffff1673ffffffffffffffffffffffffffffffffffffffff161461029f576040517f08c379a000000000000000000000000000000000000000000000000000000000815260040161029690611471565b60405180910390fd5b600034116102e2576040517f08c379a00000000000000000000000000000000000000000000000000000000081526004016102d990611503565b60405180910390fd5b7fb5dccff0c2e7a9547b26fe7dbfbfbd99813a8711e4baf7f2ec73cd69655dfe2c34604051610311919061112e565b60405180910390a1565b6003602052806000526040600020600091509050806000016040518060a001604052908160008201805461034e90611552565b80601f016020809104026020016040519081016040528092919081815260200182805461037a90611552565b80156103c75780601f1061039c576101008083540402835291602001916103c7565b820191906000526020600020905b8154815290600101906020018083116103aa57829003601f168201915b50505050508152602001600182015481526020016002820160009054906101000a900460ff1660ff1660ff16815260200160038201548152602001600482015481525050908060050154908060060154908060070154908060080154905085565b60046020528060005260406000206000915090505481565b6002818154811061045057600080fd5b906000526020600020906005020160009150905080600001805461047390611552565b80601f016020809104026020016040519081016040528092919081815260200182805461049f90611552565b80156104ec5780601f106104c1576101008083540402835291602001916104ec565b820191906000526020600020905b8154815290600101906020018083116104cf57829003601f168201915b5050505050908060010154908060020160009054906101000a900460ff16908060030154908060040154905085565b600047905090565b61052b610de6565b6000600360003373ffffffffffffffffffffffffffffffffffffffff1673ffffffffffffffffffffffffffffffffffffffff1681526020019081526020016000206040518060a0016040529081600082016040518060a001604052908160008201805461059790611552565b80601f01602080910402602001604051908101604052809291908181526020018280546105c390611552565b80156106105780601f106105e557610100808354040283529160200191610610565b820191906000526020600020905b8154815290600101906020018083116105f357829003601f168201915b50505050508152602001600182015481526020016002820160009054906101000a900460ff1660ff1660ff168152602001600382015481526020016004820154815250508152602001600582015481526020016006820154815260200160078201548152602001600882015481525050905060008160200151116106c9576040517f08c379a00000000000000000000000000000000000000000000000000000000081526004016106c0906115cf565b60405180910390fd5b8060600151421015610710576040517f08c379a00000000000000000000000000000000000000000000000000000000081526004016107079061163b565b60405180910390fd5b60008160200151905060008260800151905060008183610730919061168a565b905080471015610775576040517f08c379a000000000000000000000000000000000000000000000000000000000815260040161076c9061170a565b60405180910390fd5b600360003373ffffffffffffffffffffffffffffffffffffffff1673ffffffffffffffffffffffffffffffffffffffff1681526020019081526020016000206000808201600080820160006107ca9190610e8e565b60018201600090556002820160006101000a81549060ff02191690556003820160009055600482016000905550506005820160009055600682016000905560078201600090556008820160009055505060003373ffffffffffffffffffffffffffffffffffffffff16826040516108409061175b565b60006040518083038185875af1925050503d806000811461087d576040519150601f19603f3d011682016040523d82523d6000602084013e610882565b606091505b50509050806108c6576040517f08c379a00000000000000000000000000000000000000000000000000000000081526004016108bd906117bc565b60405180910390fd5b3373ffffffffffffffffffffffffffffffffffffffff167f7084f5476618d8e60b11ef0d7d3f06914655adb8793e28ff7f018d4c76d505d58360405161090c919061112e565b60405180910390a25050505050565b60015481565b3373ffffffffffffffffffffffffffffffffffffffff1660008054906101000a900473ffffffffffffffffffffffffffffffffffffffff1673ffffffffffffffffffffffffffffffffffffffff16146109af576040517f08c379a00000000000000000000000000000000000000000000000000000000081526004016109a690611471565b60405180910390fd5b60006040518060a001604052808581526020018481526020018360ff168152602001600081526020016000815250905060028190806001815401808255809150506001900390600052602060002090600502016000909190919091506000820151816000019081610a209190611988565b506020820151816001015560408201518160020160006101000a81548160ff021916908360ff1602179055506060820151816003015560808201518160040155505050505050565b600073ffffffffffffffffffffffffffffffffffffffff163373ffffffffffffffffffffffffffffffffffffffff1603610ad7576040517f08c379a0000000000000000000000000000000000000000000000000000000008152600401610ace90611aa6565b60405180910390fd5b60003411610b1a576040517f08c379a0000000000000000000000000000000000000000000000000000000008152600401610b1190611b12565b60405180910390fd5b6002805490508110610b61576040517f08c379a0000000000000000000000000000000000000000000000000000000008152600401610b5890611b7e565b60405180910390fd5b600060028281548110610b7757610b76611b9e565b5b906000526020600020906005020190506040518060a00160405280826040518060a0016040529081600082018054610bae90611552565b80601f0160208091040260200160405190810160405280929190818152602001828054610bda90611552565b8015610c275780601f10610bfc57610100808354040283529160200191610c27565b820191906000526020600020905b815481529060010190602001808311610c0a57829003601f168201915b50505050508152602001600182015481526020016002820160009054906101000a900460ff1660ff1660ff168152602001600382015481526020016004820154815250508152602001348152602001428152602001826001015442610c8c919061168a565b81526020016000815250600360003373ffffffffffffffffffffffffffffffffffffffff1673ffffffffffffffffffffffffffffffffffffffff1681526020019081526020016000206000820151816000016000820151816000019081610cf39190611988565b506020820151816001015560408201518160020160006101000a81548160ff021916908360ff160217905550606082015181600301556080820151816004015550506020820151816005015560408201518160060155606082015181600701556080820151816008015590505034816004016000828254610d74919061168a565b925050819055503460016000828254610d8d919061168a565b925050819055503373ffffffffffffffffffffffffffffffffffffffff167f9e71bc8eea02a63969f509818f2dafb9254532904319f9dbda79b67bd34a5f3d34604051610dda919061112e565b60405180910390a25050565b6000600360003373ffffffffffffffffffffffffffffffffffffffff1673ffffffffffffffffffffffffffffffffffffffff168152602001908152602001600020905060008160050154905060008260000160010154905060008360000160020160009054906101000a900460ff16905063bbf81e00828260ff1685610e6c9190611bcd565b610e769190611bcd565b610e809190611c3e565b846008018190555050505050565b508054610e9a90611552565b6000825580601f10610eac5750610ecb565b601f016020900490600052602060002090810190610eca9190610ece565b5b50565b5b80821115610ee7576000816000905550600101610ecf565b5090565b6000604051905090565b600080fd5b600080fd5b600073ffffffffffffffffffffffffffffffffffffffff82169050919050565b6000610f2a82610eff565b9050919050565b610f3a81610f1f565b8114610f4557600080fd5b50565b600081359050610f5781610f31565b92915050565b600060208284031215610f7357610f72610ef5565b5b6000610f8184828501610f48565b91505092915050565b600081519050919050565b600082825260208201905092915050565b60005b83811015610fc4578082015181840152602081019050610fa9565b60008484015250505050565b6000601f19601f8301169050919050565b6000610fec82610f8a565b610ff68185610f95565b9350611006818560208601610fa6565b61100f81610fd0565b840191505092915050565b6000819050919050565b61102d8161101a565b82525050565b600060ff82169050919050565b61104981611033565b82525050565b600060a083016000830151848203600086015261106c8282610fe1565b91505060208301516110816020860182611024565b5060408301516110946040860182611040565b5060608301516110a76060860182611024565b5060808301516110ba6080860182611024565b508091505092915050565b6110ce8161101a565b82525050565b600060a08201905081810360008301526110ee818861104f565b90506110fd60208301876110c5565b61110a60408301866110c5565b61111760608301856110c5565b61112460808301846110c5565b9695505050505050565b600060208201905061114360008301846110c5565b92915050565b6111528161101a565b811461115d57600080fd5b50565b60008135905061116f81611149565b92915050565b60006020828403121561118b5761118a610ef5565b5b600061119984828501611160565b91505092915050565b600082825260208201905092915050565b60006111be82610f8a565b6111c881856111a2565b93506111d8818560208601610fa6565b6111e181610fd0565b840191505092915050565b6111f581611033565b82525050565b600060a082019050818103600083015261121581886111b3565b905061122460208301876110c5565b61123160408301866111ec565b61123e60608301856110c5565b61124b60808301846110c5565b9695505050505050565b600080fd5b600080fd5b7f4e487b7100000000000000000000000000000000000000000000000000000000600052604160045260246000fd5b61129782610fd0565b810181811067ffffffffffffffff821117156112b6576112b561125f565b5b80604052505050565b60006112c9610eeb565b90506112d5828261128e565b919050565b600067ffffffffffffffff8211156112f5576112f461125f565b5b6112fe82610fd0565b9050602081019050919050565b82818337600083830152505050565b600061132d611328846112da565b6112bf565b9050828152602081018484840111156113495761134861125a565b5b61135484828561130b565b509392505050565b600082601f83011261137157611370611255565b5b813561138184826020860161131a565b91505092915050565b61139381611033565b811461139e57600080fd5b50565b6000813590506113b08161138a565b92915050565b6000806000606084860312156113cf576113ce610ef5565b5b600084013567ffffffffffffffff8111156113ed576113ec610efa565b5b6113f98682870161135c565b935050602061140a86828701611160565b925050604061141b868287016113a1565b9150509250925092565b7f4e6f74206f776e65720000000000000000000000000000000000000000000000600082015250565b600061145b6009836111a2565b915061146682611425565b602082019050919050565b6000602082019050818103600083015261148a8161144e565b9050919050565b7f4465706f73697420616d6f756e74206d7573742062652067726561746572207460008201527f68616e2030000000000000000000000000000000000000000000000000000000602082015250565b60006114ed6025836111a2565b91506114f882611491565b604082019050919050565b6000602082019050818103600083015261151c816114e0565b9050919050565b7f4e487b7100000000000000000000000000000000000000000000000000000000600052602260045260246000fd5b6000600282049050600182168061156a57607f821691505b60208210810361157d5761157c611523565b5b50919050565b7f4e6f207374616b6520666f756e64000000000000000000000000000000000000600082015250565b60006115b9600e836111a2565b91506115c482611583565b602082019050919050565b600060208201905081810360008301526115e8816115ac565b9050919050565b7f5374616b696e6720706572696f64206e6f7420656e6465640000000000000000600082015250565b60006116256018836111a2565b9150611630826115ef565b602082019050919050565b6000602082019050818103600083015261165481611618565b9050919050565b7f4e487b7100000000000000000000000000000000000000000000000000000000600052601160045260246000fd5b60006116958261101a565b91506116a08361101a565b92508282019050808211156116b8576116b761165b565b5b92915050565b7f496e73756666696369656e7420636f6e74726163742062616c616e6365000000600082015250565b60006116f4601d836111a2565b91506116ff826116be565b602082019050919050565b60006020820190508181036000830152611723816116e7565b9050919050565b600081905092915050565b50565b600061174560008361172a565b915061175082611735565b600082019050919050565b600061176682611738565b9150819050919050565b7f5472616e73666572206661696c65640000000000000000000000000000000000600082015250565b60006117a6600f836111a2565b91506117b182611770565b602082019050919050565b600060208201905081810360008301526117d581611799565b9050919050565b60008190508160005260206000209050919050565b60006020601f8301049050919050565b600082821b905092915050565b60006008830261183e7fffffffffffffffffffffffffffffffffffffffffffffffffffffffffffffffff82611801565b6118488683611801565b95508019841693508086168417925050509392505050565b6000819050919050565b600061188561188061187b8461101a565b611860565b61101a565b9050919050565b6000819050919050565b61189f8361186a565b6118b36118ab8261188c565b84845461180e565b825550505050565b600090565b6118c86118bb565b6118d3818484611896565b505050565b5b818110156118f7576118ec6000826118c0565b6001810190506118d9565b5050565b601f82111561193c5761190d816117dc565b611916846117f1565b81016020851015611925578190505b611939611931856117f1565b8301826118d8565b50505b505050565b600082821c905092915050565b600061195f60001984600802611941565b1980831691505092915050565b6000611978838361194e565b9150826002028217905092915050565b61199182610f8a565b67ffffffffffffffff8111156119aa576119a961125f565b5b6119b48254611552565b6119bf8282856118fb565b600060209050601f8311600181146119f257600084156119e0578287015190505b6119ea858261196c565b865550611a52565b601f198416611a00866117dc565b60005b82811015611a2857848901518255600182019150602085019450602081019050611a03565b86831015611a455784890151611a41601f89168261194e565b8355505b6001600288020188555050505b505050505050565b7f5a65726f20616464726573732064657465637465640000000000000000000000600082015250565b6000611a906015836111a2565b9150611a9b82611a5a565b602082019050919050565b60006020820190508181036000830152611abf81611a83565b9050919050565b7f43616e2774207374616b65207a65726f20616d6f756e74000000000000000000600082015250565b6000611afc6017836111a2565b9150611b0782611ac6565b602082019050919050565b60006020820190508181036000830152611b2b81611aef565b9050919050565b7f496e76616c696420706c616e20696e6465780000000000000000000000000000600082015250565b6000611b686012836111a2565b9150611b7382611b32565b602082019050919050565b60006020820190508181036000830152611b9781611b5b565b9050919050565b7f4e487b7100000000000000000000000000000000000000000000000000000000600052603260045260246000fd5b6000611bd88261101a565b9150611be38361101a565b9250828202611bf18161101a565b91508282048414831517611c0857611c0761165b565b5b5092915050565b7f4e487b7100000000000000000000000000000000000000000000000000000000600052601260045260246000fd5b6000611c498261101a565b9150611c548361101a565b925082611c6457611c63611c0f565b5b82820490509291505056fea2646970667358221220f3c0686a82c969069876f419cd23bf181030be6602824a1f13d2a1b0c7b8dd2e64736f6c63430008180033",
  "linkReferences": {},
  "deployedLinkReferences": {}
}